{
  "_format": "hh-sol-artifact-1",
  "contractName": "RealEstate",
  "sourceName": "contracts/RealEstate.sol",
  "abi": [
    {
      "inputs": [],
      "stateMutability": "nonpayable",
      "type": "constructor"
    },
    {
      "inputs": [
        {
          "internalType": "address",
          "name": "sender",
          "type": "address"
        },
        {
          "internalType": "uint256",
          "name": "tokenId",
          "type": "uint256"
        },
        {
          "internalType": "address",
          "name": "owner",
          "type": "address"
        }
      ],
      "name": "ERC721IncorrectOwner",
      "type": "error"
    },
    {
      "inputs": [
        {
          "internalType": "address",
          "name": "operator",
          "type": "address"
        },
        {
          "internalType": "uint256",
          "name": "tokenId",
          "type": "uint256"
        }
      ],
      "name": "ERC721InsufficientApproval",
      "type": "error"
    },
    {
      "inputs": [
        {
          "internalType": "address",
          "name": "approver",
          "type": "address"
        }
      ],
      "name": "ERC721InvalidApprover",
      "type": "error"
    },
    {
      "inputs": [
        {
          "internalType": "address",
          "name": "operator",
          "type": "address"
        }
      ],
      "name": "ERC721InvalidOperator",
      "type": "error"
    },
    {
      "inputs": [
        {
          "internalType": "address",
          "name": "owner",
          "type": "address"
        }
      ],
      "name": "ERC721InvalidOwner",
      "type": "error"
    },
    {
      "inputs": [
        {
          "internalType": "address",
          "name": "receiver",
          "type": "address"
        }
      ],
      "name": "ERC721InvalidReceiver",
      "type": "error"
    },
    {
      "inputs": [
        {
          "internalType": "address",
          "name": "sender",
          "type": "address"
        }
      ],
      "name": "ERC721InvalidSender",
      "type": "error"
    },
    {
      "inputs": [
        {
          "internalType": "uint256",
          "name": "tokenId",
          "type": "uint256"
        }
      ],
      "name": "ERC721NonexistentToken",
      "type": "error"
    },
    {
      "anonymous": false,
      "inputs": [
        {
          "indexed": true,
          "internalType": "address",
          "name": "owner",
          "type": "address"
        },
        {
          "indexed": true,
          "internalType": "address",
          "name": "approved",
          "type": "address"
        },
        {
          "indexed": true,
          "internalType": "uint256",
          "name": "tokenId",
          "type": "uint256"
        }
      ],
      "name": "Approval",
      "type": "event"
    },
    {
      "anonymous": false,
      "inputs": [
        {
          "indexed": true,
          "internalType": "address",
          "name": "owner",
          "type": "address"
        },
        {
          "indexed": true,
          "internalType": "address",
          "name": "operator",
          "type": "address"
        },
        {
          "indexed": false,
          "internalType": "bool",
          "name": "approved",
          "type": "bool"
        }
      ],
      "name": "ApprovalForAll",
      "type": "event"
    },
    {
      "anonymous": false,
      "inputs": [
        {
          "indexed": false,
          "internalType": "uint256",
          "name": "_fromTokenId",
          "type": "uint256"
        },
        {
          "indexed": false,
          "internalType": "uint256",
          "name": "_toTokenId",
          "type": "uint256"
        }
      ],
      "name": "BatchMetadataUpdate",
      "type": "event"
    },
    {
      "anonymous": false,
      "inputs": [
        {
          "indexed": false,
          "internalType": "uint256",
          "name": "_tokenId",
          "type": "uint256"
        }
      ],
      "name": "MetadataUpdate",
      "type": "event"
    },
    {
      "anonymous": false,
      "inputs": [
        {
          "indexed": true,
          "internalType": "address",
          "name": "from",
          "type": "address"
        },
        {
          "indexed": true,
          "internalType": "address",
          "name": "to",
          "type": "address"
        },
        {
          "indexed": true,
          "internalType": "uint256",
          "name": "tokenId",
          "type": "uint256"
        }
      ],
      "name": "Transfer",
      "type": "event"
    },
    {
      "inputs": [
        {
          "internalType": "address",
          "name": "to",
          "type": "address"
        },
        {
          "internalType": "uint256",
          "name": "tokenId",
          "type": "uint256"
        }
      ],
      "name": "approve",
      "outputs": [],
      "stateMutability": "nonpayable",
      "type": "function"
    },
    {
      "inputs": [
        {
          "internalType": "address",
          "name": "owner",
          "type": "address"
        }
      ],
      "name": "balanceOf",
      "outputs": [
        {
          "internalType": "uint256",
          "name": "",
          "type": "uint256"
        }
      ],
      "stateMutability": "view",
      "type": "function"
    },
    {
      "inputs": [
        {
          "internalType": "uint256",
          "name": "tokenId",
          "type": "uint256"
        }
      ],
      "name": "getApproved",
      "outputs": [
        {
          "internalType": "address",
          "name": "",
          "type": "address"
        }
      ],
      "stateMutability": "view",
      "type": "function"
    },
    {
      "inputs": [
        {
          "internalType": "address",
          "name": "owner",
          "type": "address"
        },
        {
          "internalType": "address",
          "name": "operator",
          "type": "address"
        }
      ],
      "name": "isApprovedForAll",
      "outputs": [
        {
          "internalType": "bool",
          "name": "",
          "type": "bool"
        }
      ],
      "stateMutability": "view",
      "type": "function"
    },
    {
      "inputs": [
        {
          "internalType": "string",
          "name": "tokenURI",
          "type": "string"
        }
      ],
      "name": "mint",
      "outputs": [
        {
          "internalType": "uint256",
          "name": "",
          "type": "uint256"
        }
      ],
      "stateMutability": "nonpayable",
      "type": "function"
    },
    {
      "inputs": [],
      "name": "name",
      "outputs": [
        {
          "internalType": "string",
          "name": "",
          "type": "string"
        }
      ],
      "stateMutability": "view",
      "type": "function"
    },
    {
      "inputs": [
        {
          "internalType": "uint256",
          "name": "tokenId",
          "type": "uint256"
        }
      ],
      "name": "ownerOf",
      "outputs": [
        {
          "internalType": "address",
          "name": "",
          "type": "address"
        }
      ],
      "stateMutability": "view",
      "type": "function"
    },
    {
      "inputs": [
        {
          "internalType": "address",
          "name": "from",
          "type": "address"
        },
        {
          "internalType": "address",
          "name": "to",
          "type": "address"
        },
        {
          "internalType": "uint256",
          "name": "tokenId",
          "type": "uint256"
        }
      ],
      "name": "safeTransferFrom",
      "outputs": [],
      "stateMutability": "nonpayable",
      "type": "function"
    },
    {
      "inputs": [
        {
          "internalType": "address",
          "name": "from",
          "type": "address"
        },
        {
          "internalType": "address",
          "name": "to",
          "type": "address"
        },
        {
          "internalType": "uint256",
          "name": "tokenId",
          "type": "uint256"
        },
        {
          "internalType": "bytes",
          "name": "data",
          "type": "bytes"
        }
      ],
      "name": "safeTransferFrom",
      "outputs": [],
      "stateMutability": "nonpayable",
      "type": "function"
    },
    {
      "inputs": [
        {
          "internalType": "address",
          "name": "operator",
          "type": "address"
        },
        {
          "internalType": "bool",
          "name": "approved",
          "type": "bool"
        }
      ],
      "name": "setApprovalForAll",
      "outputs": [],
      "stateMutability": "nonpayable",
      "type": "function"
    },
    {
      "inputs": [
        {
          "internalType": "bytes4",
          "name": "interfaceId",
          "type": "bytes4"
        }
      ],
      "name": "supportsInterface",
      "outputs": [
        {
          "internalType": "bool",
          "name": "",
          "type": "bool"
        }
      ],
      "stateMutability": "view",
      "type": "function"
    },
    {
      "inputs": [],
      "name": "symbol",
      "outputs": [
        {
          "internalType": "string",
          "name": "",
          "type": "string"
        }
      ],
      "stateMutability": "view",
      "type": "function"
    },
    {
      "inputs": [
        {
          "internalType": "uint256",
          "name": "tokenId",
          "type": "uint256"
        }
      ],
      "name": "tokenURI",
      "outputs": [
        {
          "internalType": "string",
          "name": "",
          "type": "string"
        }
      ],
      "stateMutability": "view",
      "type": "function"
    },
    {
      "inputs": [],
      "name": "totalSupply",
      "outputs": [
        {
          "internalType": "uint256",
          "name": "",
          "type": "uint256"
        }
      ],
      "stateMutability": "view",
      "type": "function"
    },
    {
      "inputs": [
        {
          "internalType": "address",
          "name": "from",
          "type": "address"
        },
        {
          "internalType": "address",
          "name": "to",
          "type": "address"
        },
        {
          "internalType": "uint256",
          "name": "tokenId",
          "type": "uint256"
        }
      ],
      "name": "transferFrom",
      "outputs": [],
      "stateMutability": "nonpayable",
      "type": "function"
    }
  ],
  "bytecode": "0x608060405234801561001057600080fd5b506040518060400160405280600a81526020017f5265616c457374617465000000000000000000000000000000000000000000008152506040518060400160405280600481526020017f5245414c00000000000000000000000000000000000000000000000000000000815250816000908161008c91906102f4565b50806001908161009c91906102f4565b5050506103c6565b600081519050919050565b7f4e487b7100000000000000000000000000000000000000000000000000000000600052604160045260246000fd5b7f4e487b7100000000000000000000000000000000000000000000000000000000600052602260045260246000fd5b6000600282049050600182168061012557607f821691505b602082108103610138576101376100de565b5b50919050565b60008190508160005260206000209050919050565b60006020601f8301049050919050565b600082821b905092915050565b6000600883026101a07fffffffffffffffffffffffffffffffffffffffffffffffffffffffffffffffff82610163565b6101aa8683610163565b95508019841693508086168417925050509392505050565b6000819050919050565b6000819050919050565b60006101f16101ec6101e7846101c2565b6101cc565b6101c2565b9050919050565b6000819050919050565b61020b836101d6565b61021f610217826101f8565b848454610170565b825550505050565b600090565b610234610227565b61023f818484610202565b505050565b5b818110156102635761025860008261022c565b600181019050610245565b5050565b601f8211156102a8576102798161013e565b61028284610153565b81016020851015610291578190505b6102a561029d85610153565b830182610244565b50505b505050565b600082821c905092915050565b60006102cb600019846008026102ad565b1980831691505092915050565b60006102e483836102ba565b9150826002028217905092915050565b6102fd826100a4565b67ffffffffffffffff811115610316576103156100af565b5b610320825461010d565b61032b828285610267565b600060209050601f83116001811461035e576000841561034c578287015190505b61035685826102d8565b8655506103be565b601f19841661036c8661013e565b60005b828110156103945784890151825560018201915060208501945060208101905061036f565b868310156103b157848901516103ad601f8916826102ba565b8355505b6001600288020188555050505b505050505050565b6123d0806103d56000396000f3fe608060405234801561001057600080fd5b50600436106100f55760003560e01c80636352211e11610097578063b88d4fde11610066578063b88d4fde14610284578063c87b56dd146102a0578063d85d3d27146102d0578063e985e9c514610300576100f5565b80636352211e146101ea57806370a082311461021a57806395d89b411461024a578063a22cb46514610268576100f5565b8063095ea7b3116100d3578063095ea7b31461017857806318160ddd1461019457806323b872dd146101b257806342842e0e146101ce576100f5565b806301ffc9a7146100fa57806306fdde031461012a578063081812fc14610148575b600080fd5b610114600480360381019061010f919061184f565b610330565b6040516101219190611897565b60405180910390f35b610132610391565b60405161013f9190611942565b60405180910390f35b610162600480360381019061015d919061199a565b610423565b60405161016f9190611a08565b60405180910390f35b610192600480360381019061018d9190611a4f565b61043f565b005b61019c610455565b6040516101a99190611a9e565b60405180910390f35b6101cc60048036038101906101c79190611ab9565b61045f565b005b6101e860048036038101906101e39190611ab9565b610561565b005b61020460048036038101906101ff919061199a565b610581565b6040516102119190611a08565b60405180910390f35b610234600480360381019061022f9190611b0c565b610593565b6040516102419190611a9e565b60405180910390f35b61025261064d565b60405161025f9190611942565b60405180910390f35b610282600480360381019061027d9190611b65565b6106df565b005b61029e60048036038101906102999190611cda565b6106f5565b005b6102ba60048036038101906102b5919061199a565b61071a565b6040516102c79190611942565b60405180910390f35b6102ea60048036038101906102e59190611dfe565b61082d565b6040516102f79190611a9e565b60405180910390f35b61031a60048036038101906103159190611e47565b61086d565b6040516103279190611897565b60405180910390f35b6000634906490660e01b7bffffffffffffffffffffffffffffffffffffffffffffffffffffffff1916827bffffffffffffffffffffffffffffffffffffffffffffffffffffffff1916148061038a575061038982610901565b5b9050919050565b6060600080546103a090611eb6565b80601f01602080910402602001604051908101604052809291908181526020018280546103cc90611eb6565b80156104195780601f106103ee57610100808354040283529160200191610419565b820191906000526020600020905b8154815290600101906020018083116103fc57829003601f168201915b5050505050905090565b600061042e826109e3565b5061043882610a6b565b9050919050565b610451828261044c610aa8565b610ab0565b5050565b6000600754905090565b600073ffffffffffffffffffffffffffffffffffffffff168273ffffffffffffffffffffffffffffffffffffffff16036104d15760006040517f64a0ae920000000000000000000000000000000000000000000000000000000081526004016104c89190611a08565b60405180910390fd5b60006104e583836104e0610aa8565b610ac2565b90508373ffffffffffffffffffffffffffffffffffffffff168173ffffffffffffffffffffffffffffffffffffffff161461055b578382826040517f64283d7b00000000000000000000000000000000000000000000000000000000815260040161055293929190611ee7565b60405180910390fd5b50505050565b61057c838383604051806020016040528060008152506106f5565b505050565b600061058c826109e3565b9050919050565b60008073ffffffffffffffffffffffffffffffffffffffff168273ffffffffffffffffffffffffffffffffffffffff16036106065760006040517f89c62b640000000000000000000000000000000000000000000000000000000081526004016105fd9190611a08565b60405180910390fd5b600360008373ffffffffffffffffffffffffffffffffffffffff1673ffffffffffffffffffffffffffffffffffffffff168152602001908152602001600020549050919050565b60606001805461065c90611eb6565b80601f016020809104026020016040519081016040528092919081815260200182805461068890611eb6565b80156106d55780601f106106aa576101008083540402835291602001916106d5565b820191906000526020600020905b8154815290600101906020018083116106b857829003601f168201915b5050505050905090565b6106f16106ea610aa8565b8383610cdc565b5050565b61070084848461045f565b61071461070b610aa8565b85858585610e4b565b50505050565b6060610725826109e3565b50600060066000848152602001908152602001600020805461074690611eb6565b80601f016020809104026020016040519081016040528092919081815260200182805461077290611eb6565b80156107bf5780601f10610794576101008083540402835291602001916107bf565b820191906000526020600020905b8154815290600101906020018083116107a257829003601f168201915b5050505050905060006107d0610ffc565b905060008151036107e5578192505050610828565b60008251111561081a578082604051602001610802929190611f5a565b60405160208183030381529060405292505050610828565b61082384611013565b925050505b919050565b60006001600760008282546108429190611fad565b925050819055506000600754905061085a338261107c565b6108648184611175565b80915050919050565b6000600560008473ffffffffffffffffffffffffffffffffffffffff1673ffffffffffffffffffffffffffffffffffffffff16815260200190815260200160002060008373ffffffffffffffffffffffffffffffffffffffff1673ffffffffffffffffffffffffffffffffffffffff16815260200190815260200160002060009054906101000a900460ff16905092915050565b60007f80ac58cd000000000000000000000000000000000000000000000000000000007bffffffffffffffffffffffffffffffffffffffffffffffffffffffff1916827bffffffffffffffffffffffffffffffffffffffffffffffffffffffff191614806109cc57507f5b5e139f000000000000000000000000000000000000000000000000000000007bffffffffffffffffffffffffffffffffffffffffffffffffffffffff1916827bffffffffffffffffffffffffffffffffffffffffffffffffffffffff1916145b806109dc57506109db826111d1565b5b9050919050565b6000806109ef8361123b565b9050600073ffffffffffffffffffffffffffffffffffffffff168173ffffffffffffffffffffffffffffffffffffffff1603610a6257826040517f7e273289000000000000000000000000000000000000000000000000000000008152600401610a599190611a9e565b60405180910390fd5b80915050919050565b60006004600083815260200190815260200160002060009054906101000a900473ffffffffffffffffffffffffffffffffffffffff169050919050565b600033905090565b610abd8383836001611278565b505050565b600080610ace8461123b565b9050600073ffffffffffffffffffffffffffffffffffffffff168373ffffffffffffffffffffffffffffffffffffffff1614610b1057610b0f81848661143d565b5b600073ffffffffffffffffffffffffffffffffffffffff168173ffffffffffffffffffffffffffffffffffffffff1614610ba157610b52600085600080611278565b6001600360008373ffffffffffffffffffffffffffffffffffffffff1673ffffffffffffffffffffffffffffffffffffffff168152602001908152602001600020600082825403925050819055505b600073ffffffffffffffffffffffffffffffffffffffff168573ffffffffffffffffffffffffffffffffffffffff1614610c24576001600360008773ffffffffffffffffffffffffffffffffffffffff1673ffffffffffffffffffffffffffffffffffffffff168152602001908152602001600020600082825401925050819055505b846002600086815260200190815260200160002060006101000a81548173ffffffffffffffffffffffffffffffffffffffff021916908373ffffffffffffffffffffffffffffffffffffffff160217905550838573ffffffffffffffffffffffffffffffffffffffff168273ffffffffffffffffffffffffffffffffffffffff167fddf252ad1be2c89b69c2b068fc378daa952ba7f163c4a11628f55a4df523b3ef60405160405180910390a4809150509392505050565b600073ffffffffffffffffffffffffffffffffffffffff168273ffffffffffffffffffffffffffffffffffffffff1603610d4d57816040517f5b08ba18000000000000000000000000000000000000000000000000000000008152600401610d449190611a08565b60405180910390fd5b80600560008573ffffffffffffffffffffffffffffffffffffffff1673ffffffffffffffffffffffffffffffffffffffff16815260200190815260200160002060008473ffffffffffffffffffffffffffffffffffffffff1673ffffffffffffffffffffffffffffffffffffffff16815260200190815260200160002060006101000a81548160ff0219169083151502179055508173ffffffffffffffffffffffffffffffffffffffff168373ffffffffffffffffffffffffffffffffffffffff167f17307eab39ab6107e8899845ad3d59bd9653f200f220920489ca2b5937696c3183604051610e3e9190611897565b60405180910390a3505050565b60008373ffffffffffffffffffffffffffffffffffffffff163b1115610ff5578273ffffffffffffffffffffffffffffffffffffffff1663150b7a02868685856040518563ffffffff1660e01b8152600401610eaa9493929190612036565b6020604051808303816000875af1925050508015610ee657506040513d601f19601f82011682018060405250810190610ee39190612097565b60015b610f6a573d8060008114610f16576040519150601f19603f3d011682016040523d82523d6000602084013e610f1b565b606091505b506000815103610f6257836040517f64a0ae92000000000000000000000000000000000000000000000000000000008152600401610f599190611a08565b60405180910390fd5b805181602001fd5b63150b7a0260e01b7bffffffffffffffffffffffffffffffffffffffffffffffffffffffff1916817bffffffffffffffffffffffffffffffffffffffffffffffffffffffff191614610ff357836040517f64a0ae92000000000000000000000000000000000000000000000000000000008152600401610fea9190611a08565b60405180910390fd5b505b5050505050565b606060405180602001604052806000815250905090565b606061101e826109e3565b506000611029610ffc565b905060008151116110495760405180602001604052806000815250611074565b8061105384611501565b604051602001611064929190611f5a565b6040516020818303038152906040525b915050919050565b600073ffffffffffffffffffffffffffffffffffffffff168273ffffffffffffffffffffffffffffffffffffffff16036110ee5760006040517f64a0ae920000000000000000000000000000000000000000000000000000000081526004016110e59190611a08565b60405180910390fd5b60006110fc83836000610ac2565b9050600073ffffffffffffffffffffffffffffffffffffffff168173ffffffffffffffffffffffffffffffffffffffff16146111705760006040517f73c6ac6e0000000000000000000000000000000000000000000000000000000081526004016111679190611a08565b60405180910390fd5b505050565b806006600084815260200190815260200160002090816111959190612270565b507ff8e1a15aba9398e019f0b49df1a4fde98ee17ae345cb5f6b5e2c27f5033e8ce7826040516111c59190611a9e565b60405180910390a15050565b60007f01ffc9a7000000000000000000000000000000000000000000000000000000007bffffffffffffffffffffffffffffffffffffffffffffffffffffffff1916827bffffffffffffffffffffffffffffffffffffffffffffffffffffffff1916149050919050565b60006002600083815260200190815260200160002060009054906101000a900473ffffffffffffffffffffffffffffffffffffffff169050919050565b80806112b15750600073ffffffffffffffffffffffffffffffffffffffff168273ffffffffffffffffffffffffffffffffffffffff1614155b156113e55760006112c1846109e3565b9050600073ffffffffffffffffffffffffffffffffffffffff168373ffffffffffffffffffffffffffffffffffffffff161415801561132c57508273ffffffffffffffffffffffffffffffffffffffff168173ffffffffffffffffffffffffffffffffffffffff1614155b801561133f575061133d818461086d565b155b1561138157826040517fa9fbf51f0000000000000000000000000000000000000000000000000000000081526004016113789190611a08565b60405180910390fd5b81156113e357838573ffffffffffffffffffffffffffffffffffffffff168273ffffffffffffffffffffffffffffffffffffffff167f8c5be1e5ebec7d5bd14f71427d1e84f3dd0314c0f7b2291e5b200ac8c7c3b92560405160405180910390a45b505b836004600085815260200190815260200160002060006101000a81548173ffffffffffffffffffffffffffffffffffffffff021916908373ffffffffffffffffffffffffffffffffffffffff16021790555050505050565b6114488383836115cf565b6114fc57600073ffffffffffffffffffffffffffffffffffffffff168373ffffffffffffffffffffffffffffffffffffffff16036114bd57806040517f7e2732890000000000000000000000000000000000000000000000000000000081526004016114b49190611a9e565b60405180910390fd5b81816040517f177e802f0000000000000000000000000000000000000000000000000000000081526004016114f3929190612342565b60405180910390fd5b505050565b60606000600161151084611690565b01905060008167ffffffffffffffff81111561152f5761152e611baf565b5b6040519080825280601f01601f1916602001820160405280156115615781602001600182028036833780820191505090505b509050600082602001820190505b6001156115c4578080600190039150507f3031323334353637383961626364656600000000000000000000000000000000600a86061a8153600a85816115b8576115b761236b565b5b0494506000850361156f575b819350505050919050565b60008073ffffffffffffffffffffffffffffffffffffffff168373ffffffffffffffffffffffffffffffffffffffff161415801561168757508273ffffffffffffffffffffffffffffffffffffffff168473ffffffffffffffffffffffffffffffffffffffff1614806116485750611647848461086d565b5b8061168657508273ffffffffffffffffffffffffffffffffffffffff1661166e83610a6b565b73ffffffffffffffffffffffffffffffffffffffff16145b5b90509392505050565b600080600090507a184f03e93ff9f4daa797ed6e38ed64bf6a1f01000000000000000083106116ee577a184f03e93ff9f4daa797ed6e38ed64bf6a1f01000000000000000083816116e4576116e361236b565b5b0492506040810190505b6d04ee2d6d415b85acef8100000000831061172b576d04ee2d6d415b85acef810000000083816117215761172061236b565b5b0492506020810190505b662386f26fc10000831061175a57662386f26fc1000083816117505761174f61236b565b5b0492506010810190505b6305f5e1008310611783576305f5e10083816117795761177861236b565b5b0492506008810190505b61271083106117a857612710838161179e5761179d61236b565b5b0492506004810190505b606483106117cb57606483816117c1576117c061236b565b5b0492506002810190505b600a83106117da576001810190505b80915050919050565b6000604051905090565b600080fd5b600080fd5b60007fffffffff0000000000000000000000000000000000000000000000000000000082169050919050565b61182c816117f7565b811461183757600080fd5b50565b60008135905061184981611823565b92915050565b600060208284031215611865576118646117ed565b5b60006118738482850161183a565b91505092915050565b60008115159050919050565b6118918161187c565b82525050565b60006020820190506118ac6000830184611888565b92915050565b600081519050919050565b600082825260208201905092915050565b60005b838110156118ec5780820151818401526020810190506118d1565b60008484015250505050565b6000601f19601f8301169050919050565b6000611914826118b2565b61191e81856118bd565b935061192e8185602086016118ce565b611937816118f8565b840191505092915050565b6000602082019050818103600083015261195c8184611909565b905092915050565b6000819050919050565b61197781611964565b811461198257600080fd5b50565b6000813590506119948161196e565b92915050565b6000602082840312156119b0576119af6117ed565b5b60006119be84828501611985565b91505092915050565b600073ffffffffffffffffffffffffffffffffffffffff82169050919050565b60006119f2826119c7565b9050919050565b611a02816119e7565b82525050565b6000602082019050611a1d60008301846119f9565b92915050565b611a2c816119e7565b8114611a3757600080fd5b50565b600081359050611a4981611a23565b92915050565b60008060408385031215611a6657611a656117ed565b5b6000611a7485828601611a3a565b9250506020611a8585828601611985565b9150509250929050565b611a9881611964565b82525050565b6000602082019050611ab36000830184611a8f565b92915050565b600080600060608486031215611ad257611ad16117ed565b5b6000611ae086828701611a3a565b9350506020611af186828701611a3a565b9250506040611b0286828701611985565b9150509250925092565b600060208284031215611b2257611b216117ed565b5b6000611b3084828501611a3a565b91505092915050565b611b428161187c565b8114611b4d57600080fd5b50565b600081359050611b5f81611b39565b92915050565b60008060408385031215611b7c57611b7b6117ed565b5b6000611b8a85828601611a3a565b9250506020611b9b85828601611b50565b9150509250929050565b600080fd5b600080fd5b7f4e487b7100000000000000000000000000000000000000000000000000000000600052604160045260246000fd5b611be7826118f8565b810181811067ffffffffffffffff82111715611c0657611c05611baf565b5b80604052505050565b6000611c196117e3565b9050611c258282611bde565b919050565b600067ffffffffffffffff821115611c4557611c44611baf565b5b611c4e826118f8565b9050602081019050919050565b82818337600083830152505050565b6000611c7d611c7884611c2a565b611c0f565b905082815260208101848484011115611c9957611c98611baa565b5b611ca4848285611c5b565b509392505050565b600082601f830112611cc157611cc0611ba5565b5b8135611cd1848260208601611c6a565b91505092915050565b60008060008060808587031215611cf457611cf36117ed565b5b6000611d0287828801611a3a565b9450506020611d1387828801611a3a565b9350506040611d2487828801611985565b925050606085013567ffffffffffffffff811115611d4557611d446117f2565b5b611d5187828801611cac565b91505092959194509250565b600067ffffffffffffffff821115611d7857611d77611baf565b5b611d81826118f8565b9050602081019050919050565b6000611da1611d9c84611d5d565b611c0f565b905082815260208101848484011115611dbd57611dbc611baa565b5b611dc8848285611c5b565b509392505050565b600082601f830112611de557611de4611ba5565b5b8135611df5848260208601611d8e565b91505092915050565b600060208284031215611e1457611e136117ed565b5b600082013567ffffffffffffffff811115611e3257611e316117f2565b5b611e3e84828501611dd0565b91505092915050565b60008060408385031215611e5e57611e5d6117ed565b5b6000611e6c85828601611a3a565b9250506020611e7d85828601611a3a565b9150509250929050565b7f4e487b7100000000000000000000000000000000000000000000000000000000600052602260045260246000fd5b60006002820490506001821680611ece57607f821691505b602082108103611ee157611ee0611e87565b5b50919050565b6000606082019050611efc60008301866119f9565b611f096020830185611a8f565b611f1660408301846119f9565b949350505050565b600081905092915050565b6000611f34826118b2565b611f3e8185611f1e565b9350611f4e8185602086016118ce565b80840191505092915050565b6000611f668285611f29565b9150611f728284611f29565b91508190509392505050565b7f4e487b7100000000000000000000000000000000000000000000000000000000600052601160045260246000fd5b6000611fb882611964565b9150611fc383611964565b9250828201905080821115611fdb57611fda611f7e565b5b92915050565b600081519050919050565b600082825260208201905092915050565b600061200882611fe1565b6120128185611fec565b93506120228185602086016118ce565b61202b816118f8565b840191505092915050565b600060808201905061204b60008301876119f9565b61205860208301866119f9565b6120656040830185611a8f565b81810360608301526120778184611ffd565b905095945050505050565b60008151905061209181611823565b92915050565b6000602082840312156120ad576120ac6117ed565b5b60006120bb84828501612082565b91505092915050565b60008190508160005260206000209050919050565b60006020601f8301049050919050565b600082821b905092915050565b6000600883026121267fffffffffffffffffffffffffffffffffffffffffffffffffffffffffffffffff826120e9565b61213086836120e9565b95508019841693508086168417925050509392505050565b6000819050919050565b600061216d61216861216384611964565b612148565b611964565b9050919050565b6000819050919050565b61218783612152565b61219b61219382612174565b8484546120f6565b825550505050565b600090565b6121b06121a3565b6121bb81848461217e565b505050565b5b818110156121df576121d46000826121a8565b6001810190506121c1565b5050565b601f821115612224576121f5816120c4565b6121fe846120d9565b8101602085101561220d578190505b612221612219856120d9565b8301826121c0565b50505b505050565b600082821c905092915050565b600061224760001984600802612229565b1980831691505092915050565b60006122608383612236565b9150826002028217905092915050565b612279826118b2565b67ffffffffffffffff81111561229257612291611baf565b5b61229c8254611eb6565b6122a78282856121e3565b600060209050601f8311600181146122da57600084156122c8578287015190505b6122d28582612254565b86555061233a565b601f1984166122e8866120c4565b60005b82811015612310578489015182556001820191506020850194506020810190506122eb565b8683101561232d5784890151612329601f891682612236565b8355505b6001600288020188555050505b505050505050565b600060408201905061235760008301856119f9565b6123646020830184611a8f565b9392505050565b7f4e487b7100000000000000000000000000000000000000000000000000000000600052601260045260246000fdfea2646970667358221220cafd2eae38752f61a7407bbc9770004d4e508274da798669ef706c741fddb66364736f6c634300081b0033",
  "linkReferences": {},
  "deployedLinkReferences": {}
}